:20C0000031802000B240805A20010C413D40F8C33E401000B012B4C30C413C5010003D40B0
:20C0200008C43E401000B012B4C3B0128CC03C404A00B01292C13C407500B01292C13C4002
:20C040006C00B01292C13C406900B01292C13C406100B01292C13C4040000D41B01236C3AE
:20C060003C408600B0126EC20C43B01292C13C4048000D413D501000B01236C33C408700FB
:20C08000B0126EC21C43B01292C1FF3FF2D060002200F2D00F002A002C43B012AAC23C40A4
:20C0A0000F00B01278C33C400300B0126EC22C43B012AAC23C400500B01278C33C40030069
:20C0C000B0126EC22C43B012AAC21C43B01278C33C400300B0126EC22C43B012AAC21C4308
:20C0E000B01278C32C43B0126EC22C43B012AAC21C43B01278C33C402800B0126EC23C40D7
:20C100000C00B0126EC23C400600B0126EC21C43B0126EC230410A12091208120A4C784A82
:20C120000943113C0E4D0E8B1E831D53FD4EFFFF1F83FB23033C1D53FD4AFFFF12C3081077
:20C1400019533992EC3718B3F6237B4A7F4A0C4BB0122CC30B4C0C4FB0121AC23CF00F0080
:20C160000BDC3FF00F003F5003003F9012000C207E4A3EB0800007247C4A4C4CB01226C391
:20C180003EF07F000EDC0F5E3B90FF0FCB233040CEC30A120A4CB01200C37CF00F00C24C53
:20C1A0002900F2D040002100B012D6C30C43B012AAC21C43B01278C37AF00F00C24A290051
:20C1C000F2D040002100B012D6C30C43B012AAC22C43B01278C3F2F0BF0021003A4130414A
:20C1E0003DF00F003DE00F000D5D0D5D005D12C30C1012C30C1012C30C1012C30C1012C30D
:20C200000C1012C30C1012C30C1012C30C1012C30C1012C30C1012C30C1012C30C1012C396
:20C220000C1012C30C1012C30C1030410A1209123F401EC43F9022C416243F4022C43F90D4
:20C2400026C411243A4026C43A8022C40A110A11394022C43C497F4C0F5F1F4F1EC43D4992
:20C260008F121A83F723B012F6C33040D0C30A120A4CB01200C37CF00F00C24C2900B0127D
:20C28000D6C30C43B012AAC21C43B01278C37AF00F00C24A2900B012D6C30C43B012AAC2A6
:20C2A0002C43B01278C33A4130410C9310241C830724B240D6026001B2407C0072010D3C34
:20C2C000B240F6026001B24023F47201063CB24016026001B2403100720132D230413DF0B2
:20C2E0000F003DE00F000D5D005D0C110C110C110C110C110C110C110C110C110C110C11FD
:20C300000C110C110C110C1130413DF00F003DE00F000D5D005D0C5C0C5C0C5C0C5C0C5C01
:20C320000C5C0C5C0C5C0C5C0C5C0C5C0C5C0C5C0C5C0C5C30410A120912094DB0126EC2FD
:20C340000A433A9209340F4A0F5F0F592C4FB01292C11A533A92F73B3040D0C331400004E5
:20C36000B012F2C30C930224B0122CC20C43B01200C01C43B012ECC382430002829C000249
:20C38000052C32D01000829C0002FB2B3041B2900A002E01052092530002B1C0100000009B
:20C3A00000130F4C0C4D3D4003000D5F1E4F01003040B4C30E9306240F4C1F53FF4DFFFF93
:20C3C0001E83FB2330413441354136413741384139413A413041F2D020002100F2F0DF00B0
:18C3E0002100304132D01000FD3F03430343FF3F03431C433041304114
:20C3F800010006000E001C001C000E000600010004000E001F001F001E001C001000000029
:0EC4180001000200000016C1A2C318C40002F9
:02FFDE00FFFF23
:02FFE000E4C378
:02FFE400E4C374
:02FFE600E4C372
:02FFEA00E4C36E
:02FFEC00E4C36C
:02FFEE00E4C36A
:02FFF0008EC3BE
:02FFF200E4C366
:02FFF400E4C364
:02FFF600E4C362
:02FFF800E4C360
:02FFFA00E4C35E
:02FFFC00E4C35C
:02FFFE005CC3E2
:00000001FF
