:20C00000B0122AC63C402000B012B8C33C402000B012B8C33C402000B012B8C33C40420025
:20C02000B012B8C33C406900B012B8C33C406500B012B8C33C406E00B012B8C33C4076006A
:20C04000B012B8C33C406500B012B8C33C406E00B012B8C33C406900B012B8C33C4064005C
:20C06000B012B8C33C406F00B012B8C33C403A00B012B8C33C40C000B012DEC43C4031001B
:20C08000B012B8C33C402D00B012B8C33C405200B012B8C33C404D00B012B8C33C402000D0
:20C0A000B012B8C33C403200B012B8C33C402D00B012B8C33C404C00B012B8C33C4056009B
:20C0C000B012B8C33C402000B012B8C33C403300B012B8C33C402D00B012B8C33C404500B7
:20C0E000B012B8C33C405800B012B8C31C43B0121AC53C400A00B012DCC53041F2D0600076
:20C100002200F2D00F002A002C43B0121AC53C400F00B012DCC53C400300B012DEC42C43B2
:20C12000B0121AC53C400500B012DCC53C400300B012DEC42C43B0121AC51C43B012DCC5C5
:20C140003C400300B012DEC42C43B0121AC51C43B012DCC52C43B012DEC42C43B0121AC547
:20C160001C43B012DCC53C402800B012DEC43C400C00B012DEC43C400600B012DEC41C43C4
:20C18000B012DEC430410F120E120D120C120B12C29323000A244F43C293000201205F43DD
:20C1A000C24F0002F2F0EF002300C29300020620B0125CC3F2F0E1002300023CB01200C074
:20C1C000C29323000A244F43C293010201205F43C24F0102F2F07F002300C29301020620F6
:20C1E000B012F0C2B2400F000602053CB01284C2B2400B000602B1C010000A003B413C41F0
:20C200003D413E413F4100130A12091208120A4C784A0943113C0E4D0E8B1E831D53FD4E3C
:20C22000FFFF1F83FB23033C1D53FD4AFFFF12C3081019533992EC3718B3F6237B4A7F4A93
:20C240000C4BB0129CC50B4C0C4FB01240C43CF00F000BDC3FF00F003F5003003F90120019
:20C260000C207E4A3EB0800007247C4A4C4CB01296C53EF07F000EDC0F5E3B90FF0FCB23EB
:20C28000304042C6B0122AC63C402000B012B8C33C402000B012B8C33C405600B012B8C3B3
:20C2A0003C406500B012B8C33C406C00B012B8C33C403A00B012B8C33C402000B012B8C36F
:20C2C0003C404100B012B8C33C406C00B012B8C33C407400B012B8C33C406100B012B8C3F8
:20C2E0001C43B0121AC53C400500B012DCC53041B0122AC63C402000B012B8C33C402000C2
:20C30000B012B8C33C405600B012B8C33C406500B012B8C33C406C00B012B8C33C403A00D8
:20C32000B012B8C33C402000B012B8C33C404200B012B8C33C406100B012B8C33C406A00EC
:20C34000B012B8C33C406100B012B8C31C43B0121AC53C400500B012DCC53041B0122AC67F
:20C360003C402000B012B8C33C402000B012B8C33C404100B012B8C33C407000B012B8C3E8
:20C380003C406100B012B8C33C406700B012B8C33C406100B012B8C33C406400B012B8C32C
:20C3A0003C406100B012B8C31C43B0121AC53C400A00B012DCC530410A120A4CB01270C5A0
:20C3C0007CF00F00C24C2900F2D040002100B0124AC60C43B0121AC51C43B012DCC57AF09A
:20C3E0000F00C24A2900F2D040002100B0124AC60C43B0121AC52C43B012DCC5F2F0BF00A1
:20C4000021003A4130413DF00F003DE00F000D5D0D5D005D12C30C1012C30C1012C30C10A3
:20C4200012C30C1012C30C1012C30C1012C30C1012C30C1012C30C1012C30C1012C30C1074
:20C4400012C30C1012C30C1012C30C1012C30C103041F2F06F002200F2D090002700F2F0D9
:20C460006F002100F2D090002500F2D090002400F2F06F002300F2F08F002A00F2D07000FE
:20C480002F00F2F08F002900F2D070002C00F2F08F002B00F2D070002D0030410A120912D2
:20C4A0003F4088C63F908CC616243F408CC63F9090C611243A4090C63A808CC60A110A1117
:20C4C00039408CC63C497F4C0F5F1F4F88C63D498F121A83F723B01278C6304044C60A12A3
:20C4E0000A4CB01270C57CF00F00C24C2900B0124AC60C43B0121AC51C43B012DCC57AF04F
:20C500000F00C24A2900B0124AC60C43B0121AC52C43B012DCC53A4130410C9310241C83E5
:20C520000724B240D6026001B2407C0072010D3CB240F6026001B24023F47201063CB24080
:20C5400016026001B2403100720132D230413DF00F003DE00F000D5D005D0C110C110C11D1
:20C560000C110C110C110C110C110C110C110C110C110C110C110C1130413DF00F003DE095
:20C580000F000D5D005D0C5C0C5C0C5C0C5C0C5C0C5C0C5C0C5C0C5C0C5C0C5C0C5C0C5C7D
:20C5A0000C5C0C5C304131400004B01274C60C930224B0129CC40C43B012C2C51C43B01229
:20C5C0006EC6B240805A2001B01258C6B01252C4B012FCC032D232D01000FD3F82430802E3
:20C5E000829C0802052C32D01000829C0802FB2B3041B2900A002E01052092530802B1C011
:20C600001000000000130F4C0C4D3D4003000D5F1E4F0100304018C60E9306240F4C1F5303
:20C62000FF4DFFFF1E83FB2330411C43B012DEC43C408000B012DEC430413441354136418A
:20C640003741384139413A413041F2D020002100F2F0DF0021003041F2D00F002200F2F058
:1AC66000F0002100304132D01000FD3F03430343FF3F03431C43304130419F
:16C67A0001000A000100010101000F00000008C206C67AC60002B4
:02FFDE00FFFF23
:02FFE00066C6F3
:02FFE40086C1D4
:02FFE60066C6ED
:02FFEA0066C6E9
:02FFEC0066C6E7
:02FFEE0066C6E5
:02FFF000F2C558
:02FFF20066C6E1
:02FFF40066C6DF
:02FFF60066C6DD
:02FFF80066C6DB
:02FFFA0066C6D9
:02FFFC0066C6D7
:02FFFE00A6C596
:00000001FF
