:20C0000031802000B240805A20010C413D40C8C33E401000B01284C30C413C5010003D4010
:20C02000D8C33E401000B01284C3B0128CC03C404A00B01292C13C407500B01292C13C4063
:20C040006C00B01292C13C406900B01292C13C406100B01292C13C4040000D41B01206C3DE
:20C060003C408600B0126CC20C43B01292C13C4048000D413D501000B01206C33C4087002D
:20C08000B0126CC21C43B01292C1FF3FF2D060002200F2D00F002A002C43B012A6C23C40AA
:20C0A0000F00B01248C33C400300B0126CC22C43B012A6C23C400500B01248C33C400300CF
:20C0C000B0126CC22C43B012A6C21C43B01248C33C400300B0126CC22C43B012A6C21C4344
:20C0E000B01248C32C43B0126CC22C43B012A6C21C43B01248C33C402800B0126CC23C403F
:20C100000C00B0126CC23C400600B0126CC21C43B0126CC230410A12091208120A4C784A88
:20C120000943113C0E4D0E8B1E831D53FD4EFFFF1F83FB23033C1D53FD4AFFFF12C3081077
:20C1400019533992EC3718B3F6237B4A7F4A0C4BB012FCC20B4C0C4FB01218C23CF00F00B3
:20C160000BDC3FF00F003F5003003F9012000C207E4A3EB0800007247C4A4C4CB012F6C2C2
:20C180003EF07F000EDC0F5E3B90FF0FCB2330409EC30A120A4C0F4A7FF00F00C24F290080
:20C1A000F2D040002100B012A6C30C43B012A6C21C43B01248C37AF00F00C24A2900F2D01C
:20C1C00040002100B012A6C30C43B012A6C22C43B01248C3F2F0BF0021003A4130413DF043
:20C1E0000F003DE00F000D5D0D5D005D12C30C1012C30C1012C30C1012C30C1012C30C101E
:20C2000012C30C1012C30C1012C30C1012C30C1012C30C1012C30C1012C30C1012C30C1096
:20C2200012C30C1012C30C1030410A1209123F40EEC33F90F2C316243F40F2C33F90F6C3CA
:20C2400011243A40F6C33A80F2C30A110A113940F2C33C497F4C0F5F1F4FEEC33D498F129F
:20C260001A83F723B012C6C33040A0C30A120A4C0F4A7FF00F00C24F2900B012A6C30C43EC
:20C28000B012A6C21C43B01248C37AF00F00C24A2900B012A6C30C43B012A6C22C43B012C5
:20C2A00048C33A4130410C9310241C830724B240D6026001B2407C0072010D3CB240F602AB
:20C2C0006001B24023F47201063CB24016026001B2403100720132D230413DF00F003DE070
:20C2E0000F000D5D005D0C5C0C5C0C5C0C5C0C5C0C5C0C5C0C5C0C5C0C5C0C5C0C5C0C5C20
:20C300000C5C0C5C30410A120912094DB0126CC20A433A9209340F4A0F5F0F592C4FB0129D
:20C3200092C11A533A92F73B3040A0C331400004B012C2C30C930224B0122AC20C43B0122C
:20C3400000C01C43B012BCC382430002829C0002052C32D01000829C0002FB2B3041B2905A
:20C360000A002E01052092530002B1C01000000000130F4C0C4D3D4003000D5F1E4F0100D6
:20C38000304084C30E9306240F4C1F53FF4DFFFF1E83FB2330413441354136413741384181
:20C3A00039413A413041F2D020002100F2F0DF002100304132D01000FD3F03430343FF3FA9
:08C3C00003431C4330413041EE
:20C3C800010006000E001C001C000E000600010004000E001F001F001E001C001000000059
:0EC3E80001000200000016C172C3E8C300028B
:02FFDE00FFFF23
:02FFE000B4C3A8
:02FFE400B4C3A4
:02FFE600B4C3A2
:02FFEA00B4C39E
:02FFEC00B4C39C
:02FFEE00B4C39A
:02FFF0005EC3EE
:02FFF200B4C396
:02FFF400B4C394
:02FFF600B4C392
:02FFF800B4C390
:02FFFA00B4C38E
:02FFFC00B4C38C
:02FFFE002CC312
:00000001FF
